{
	"TransparentProxy.sol": {
		"TransparentProxy": {
			"abi": [
				{
					"inputs": [
						{
							"internalType": "address",
							"name": "_implementation",
							"type": "address"
						}
					],
					"stateMutability": "nonpayable",
					"type": "constructor"
				},
				{
					"stateMutability": "payable",
					"type": "fallback"
				},
				{
					"inputs": [],
					"name": "admin",
					"outputs": [
						{
							"internalType": "address",
							"name": "",
							"type": "address"
						}
					],
					"stateMutability": "view",
					"type": "function"
				},
				{
					"inputs": [],
					"name": "implementation",
					"outputs": [
						{
							"internalType": "address",
							"name": "",
							"type": "address"
						}
					],
					"stateMutability": "view",
					"type": "function"
				},
				{
					"inputs": [
						{
							"internalType": "address",
							"name": "_newImplementation",
							"type": "address"
						}
					],
					"name": "upgradeImplementation",
					"outputs": [],
					"stateMutability": "nonpayable",
					"type": "function"
				},
				{
					"stateMutability": "payable",
					"type": "receive"
				}
			],
			"devdoc": {
				"kind": "dev",
				"methods": {},
				"version": 1
			},
			"evm": {
				"assembly": "    /* \"TransparentProxy.sol\":1157:2554  contract TransparentProxy {... */\n  mstore(0x40, 0x80)\n    /* \"TransparentProxy.sol\":1422:1561  constructor(address _implementation) {... */\n  callvalue\n  dup1\n  iszero\n  tag_1\n  jumpi\n  revert(0x00, 0x00)\ntag_1:\n  pop\n  mload(0x40)\n  sub(codesize, bytecodeSize)\n  dup1\n  bytecodeSize\n  dup4\n  codecopy\n  dup2\n  dup2\n  add\n  0x40\n  mstore\n  dup2\n  add\n  swap1\n  tag_2\n  swap2\n  swap1\n  tag_3\n  jump\t// in\ntag_2:\n    /* \"TransparentProxy.sol\":1486:1501  _implementation */\n  dup1\n    /* \"TransparentProxy.sol\":1469:1483  implementation */\n  0x00\n  0x00\n    /* \"TransparentProxy.sol\":1469:1501  implementation = _implementation */\n  0x0100\n  exp\n  dup2\n  sload\n  dup2\n  0xffffffffffffffffffffffffffffffffffffffff\n  mul\n  not\n  and\n  swap1\n  dup4\n  0xffffffffffffffffffffffffffffffffffffffff\n  and\n  mul\n  or\n  swap1\n  sstore\n  pop\n    /* \"TransparentProxy.sol\":1519:1529  msg.sender */\n  caller\n    /* \"TransparentProxy.sol\":1511:1516  admin */\n  0x01\n  0x00\n    /* \"TransparentProxy.sol\":1511:1529  admin = msg.sender */\n  0x0100\n  exp\n  dup2\n  sload\n  dup2\n  0xffffffffffffffffffffffffffffffffffffffff\n  mul\n  not\n  and\n  swap1\n  dup4\n  0xffffffffffffffffffffffffffffffffffffffff\n  and\n  mul\n  or\n  swap1\n  sstore\n  pop\n    /* \"TransparentProxy.sol\":1422:1561  constructor(address _implementation) {... */\n  pop\n    /* \"TransparentProxy.sol\":1157:2554  contract TransparentProxy {... */\n  jump(tag_6)\n    /* \"#utility.yul\":88:205   */\ntag_8:\n    /* \"#utility.yul\":197:198   */\n  0x00\n    /* \"#utility.yul\":194:195   */\n  0x00\n    /* \"#utility.yul\":187:199   */\n  revert\n    /* \"#utility.yul\":334:460   */\ntag_10:\n    /* \"#utility.yul\":371:378   */\n  0x00\n    /* \"#utility.yul\":411:453   */\n  0xffffffffffffffffffffffffffffffffffffffff\n    /* \"#utility.yul\":404:409   */\n  dup3\n    /* \"#utility.yul\":400:454   */\n  and\n    /* \"#utility.yul\":389:454   */\n  swap1\n  pop\n    /* \"#utility.yul\":334:460   */\n  swap2\n  swap1\n  pop\n  jump\t// out\n    /* \"#utility.yul\":466:562   */\ntag_11:\n    /* \"#utility.yul\":503:510   */\n  0x00\n    /* \"#utility.yul\":532:556   */\n  tag_20\n    /* \"#utility.yul\":550:555   */\n  dup3\n    /* \"#utility.yul\":532:556   */\n  tag_10\n  jump\t// in\ntag_20:\n    /* \"#utility.yul\":521:556   */\n  swap1\n  pop\n    /* \"#utility.yul\":466:562   */\n  swap2\n  swap1\n  pop\n  jump\t// out\n    /* \"#utility.yul\":568:690   */\ntag_12:\n    /* \"#utility.yul\":641:665   */\n  tag_22\n    /* \"#utility.yul\":659:664   */\n  dup2\n    /* \"#utility.yul\":641:665   */\n  tag_11\n  jump\t// in\ntag_22:\n    /* \"#utility.yul\":634:639   */\n  dup2\n    /* \"#utility.yul\":631:666   */\n  eq\n    /* \"#utility.yul\":621:684   */\n  tag_23\n  jumpi\n    /* \"#utility.yul\":680:681   */\n  0x00\n    /* \"#utility.yul\":677:678   */\n  0x00\n    /* \"#utility.yul\":670:682   */\n  revert\n    /* \"#utility.yul\":621:684   */\ntag_23:\n    /* \"#utility.yul\":568:690   */\n  pop\n  jump\t// out\n    /* \"#utility.yul\":696:839   */\ntag_13:\n    /* \"#utility.yul\":753:758   */\n  0x00\n    /* \"#utility.yul\":784:790   */\n  dup2\n    /* \"#utility.yul\":778:791   */\n  mload\n    /* \"#utility.yul\":769:791   */\n  swap1\n  pop\n    /* \"#utility.yul\":800:833   */\n  tag_25\n    /* \"#utility.yul\":827:832   */\n  dup2\n    /* \"#utility.yul\":800:833   */\n  tag_12\n  jump\t// in\ntag_25:\n    /* \"#utility.yul\":696:839   */\n  swap3\n  swap2\n  pop\n  pop\n  jump\t// out\n    /* \"#utility.yul\":845:1196   */\ntag_3:\n    /* \"#utility.yul\":915:921   */\n  0x00\n    /* \"#utility.yul\":964:966   */\n  0x20\n    /* \"#utility.yul\":952:961   */\n  dup3\n    /* \"#utility.yul\":943:950   */\n  dup5\n    /* \"#utility.yul\":939:962   */\n  sub\n    /* \"#utility.yul\":935:967   */\n  slt\n    /* \"#utility.yul\":932:1051   */\n  iszero\n  tag_27\n  jumpi\n    /* \"#utility.yul\":970:1049   */\n  tag_28\n  tag_8\n  jump\t// in\ntag_28:\n    /* \"#utility.yul\":932:1051   */\ntag_27:\n    /* \"#utility.yul\":1090:1091   */\n  0x00\n    /* \"#utility.yul\":1115:1179   */\n  tag_29\n    /* \"#utility.yul\":1171:1178   */\n  dup5\n    /* \"#utility.yul\":1162:1168   */\n  dup3\n    /* \"#utility.yul\":1151:1160   */\n  dup6\n    /* \"#utility.yul\":1147:1169   */\n  add\n    /* \"#utility.yul\":1115:1179   */\n  tag_13\n  jump\t// in\ntag_29:\n    /* \"#utility.yul\":1105:1179   */\n  swap2\n  pop\n    /* \"#utility.yul\":1061:1189   */\n  pop\n    /* \"#utility.yul\":845:1196   */\n  swap3\n  swap2\n  pop\n  pop\n  jump\t// out\n    /* \"TransparentProxy.sol\":1157:2554  contract TransparentProxy {... */\ntag_6:\n  dataSize(sub_0)\n  dup1\n  dataOffset(sub_0)\n  0x00\n  codecopy\n  0x00\n  return\nstop\n\nsub_0: assembly {\n        /* \"TransparentProxy.sol\":1157:2554  contract TransparentProxy {... */\n      mstore(0x40, 0x80)\n      jumpi(tag_1, lt(calldatasize, 0x04))\n      shr(0xe0, calldataload(0x00))\n      dup1\n      0x5c60da1b\n      eq\n      tag_3\n      jumpi\n      dup1\n      0x83f94db7\n      eq\n      tag_4\n      jumpi\n      dup1\n      0xf851a440\n      eq\n      tag_5\n      jumpi\n      jump(tag_2)\n    tag_1:\n      jumpi(tag_2, calldatasize)\n      stop\n    tag_2:\n        /* \"TransparentProxy.sol\":2102:2114  address impl */\n      0x00\n        /* \"TransparentProxy.sol\":2117:2131  implementation */\n      0x00\n      0x00\n      swap1\n      sload\n      swap1\n      0x0100\n      exp\n      swap1\n      div\n      0xffffffffffffffffffffffffffffffffffffffff\n      and\n        /* \"TransparentProxy.sol\":2102:2131  address impl = implementation */\n      swap1\n      pop\n        /* \"TransparentProxy.sol\":2210:2211  0 */\n      0x00\n        /* \"TransparentProxy.sol\":2194:2212  impl != address(0) */\n      0xffffffffffffffffffffffffffffffffffffffff\n      and\n        /* \"TransparentProxy.sol\":2194:2198  impl */\n      dup2\n        /* \"TransparentProxy.sol\":2194:2212  impl != address(0) */\n      0xffffffffffffffffffffffffffffffffffffffff\n      and\n      sub\n        /* \"TransparentProxy.sol\":2186:2239  require(impl != address(0), \"Implementation not set\") */\n      tag_10\n      jumpi\n      mload(0x40)\n      0x08c379a000000000000000000000000000000000000000000000000000000000\n      dup2\n      mstore\n      0x04\n      add\n      tag_11\n      swap1\n      tag_12\n      jump\t// in\n    tag_11:\n      mload(0x40)\n      dup1\n      swap2\n      sub\n      swap1\n      revert\n    tag_10:\n        /* \"TransparentProxy.sol\":2311:2323  bool success */\n      0x00\n        /* \"TransparentProxy.sol\":2329:2333  impl */\n      dup2\n        /* \"TransparentProxy.sol\":2329:2346  impl.delegatecall */\n      0xffffffffffffffffffffffffffffffffffffffff\n      and\n        /* \"TransparentProxy.sol\":2347:2355  msg.data */\n      0x00\n      calldatasize\n        /* \"TransparentProxy.sol\":2329:2356  impl.delegatecall(msg.data) */\n      mload(0x40)\n      tag_13\n      swap3\n      swap2\n      swap1\n      tag_14\n      jump\t// in\n    tag_13:\n      0x00\n      mload(0x40)\n      dup1\n      dup4\n      sub\n      dup2\n      dup6\n      gas\n      delegatecall\n      swap2\n      pop\n      pop\n      returndatasize\n      dup1\n      0x00\n      dup2\n      eq\n      tag_17\n      jumpi\n      mload(0x40)\n      swap2\n      pop\n      and(add(returndatasize, 0x3f), not(0x1f))\n      dup3\n      add\n      0x40\n      mstore\n      returndatasize\n      dup3\n      mstore\n      returndatasize\n      0x00\n      0x20\n      dup5\n      add\n      returndatacopy\n      jump(tag_16)\n    tag_17:\n      0x60\n      swap2\n      pop\n    tag_16:\n      pop\n        /* \"TransparentProxy.sol\":2310:2356  (bool success, ) = impl.delegatecall(msg.data) */\n      pop\n      swap1\n      pop\n        /* \"TransparentProxy.sol\":2425:2432  success */\n      dup1\n        /* \"TransparentProxy.sol\":2417:2456  require(success, \"Delegatecall failed\") */\n      tag_18\n      jumpi\n      mload(0x40)\n      0x08c379a000000000000000000000000000000000000000000000000000000000\n      dup2\n      mstore\n      0x04\n      add\n      tag_19\n      swap1\n      tag_20\n      jump\t// in\n    tag_19:\n      mload(0x40)\n      dup1\n      swap2\n      sub\n      swap1\n      revert\n    tag_18:\n        /* \"TransparentProxy.sol\":2042:2463  {... */\n      stop\n        /* \"TransparentProxy.sol\":1243:1272  address public implementation */\n    tag_3:\n      callvalue\n      dup1\n      iszero\n      tag_21\n      jumpi\n      revert(0x00, 0x00)\n    tag_21:\n      pop\n      tag_22\n      tag_23\n      jump\t// in\n    tag_22:\n      mload(0x40)\n      tag_24\n      swap2\n      swap1\n      tag_25\n      jump\t// in\n    tag_24:\n      mload(0x40)\n      dup1\n      swap2\n      sub\n      swap1\n      return\n        /* \"TransparentProxy.sol\":1806:1934  function upgradeImplementation(address _newImplementation) public onlyAdmin {... */\n    tag_4:\n      callvalue\n      dup1\n      iszero\n      tag_26\n      jumpi\n      revert(0x00, 0x00)\n    tag_26:\n      pop\n      tag_27\n      0x04\n      dup1\n      calldatasize\n      sub\n      dup2\n      add\n      swap1\n      tag_28\n      swap2\n      swap1\n      tag_29\n      jump\t// in\n    tag_28:\n      tag_30\n      jump\t// in\n    tag_27:\n      stop\n        /* \"TransparentProxy.sol\":1332:1352  address public admin */\n    tag_5:\n      callvalue\n      dup1\n      iszero\n      tag_31\n      jumpi\n      revert(0x00, 0x00)\n    tag_31:\n      pop\n      tag_32\n      tag_33\n      jump\t// in\n    tag_32:\n      mload(0x40)\n      tag_34\n      swap2\n      swap1\n      tag_25\n      jump\t// in\n    tag_34:\n      mload(0x40)\n      dup1\n      swap2\n      sub\n      swap1\n      return\n        /* \"TransparentProxy.sol\":1243:1272  address public implementation */\n    tag_23:\n      0x00\n      0x00\n      swap1\n      sload\n      swap1\n      0x0100\n      exp\n      swap1\n      div\n      0xffffffffffffffffffffffffffffffffffffffff\n      and\n      dup2\n      jump\t// out\n        /* \"TransparentProxy.sol\":1806:1934  function upgradeImplementation(address _newImplementation) public onlyAdmin {... */\n    tag_30:\n        /* \"TransparentProxy.sol\":1671:1676  admin */\n      0x01\n      0x00\n      swap1\n      sload\n      swap1\n      0x0100\n      exp\n      swap1\n      div\n      0xffffffffffffffffffffffffffffffffffffffff\n      and\n        /* \"TransparentProxy.sol\":1657:1676  msg.sender == admin */\n      0xffffffffffffffffffffffffffffffffffffffff\n      and\n        /* \"TransparentProxy.sol\":1657:1667  msg.sender */\n      caller\n        /* \"TransparentProxy.sol\":1657:1676  msg.sender == admin */\n      0xffffffffffffffffffffffffffffffffffffffff\n      and\n      eq\n        /* \"TransparentProxy.sol\":1649:1714  require(msg.sender == admin, \"Only admin can call this function\") */\n      tag_36\n      jumpi\n      mload(0x40)\n      0x08c379a000000000000000000000000000000000000000000000000000000000\n      dup2\n      mstore\n      0x04\n      add\n      tag_37\n      swap1\n      tag_38\n      jump\t// in\n    tag_37:\n      mload(0x40)\n      dup1\n      swap2\n      sub\n      swap1\n      revert\n    tag_36:\n        /* \"TransparentProxy.sol\":1909:1927  _newImplementation */\n      dup1\n        /* \"TransparentProxy.sol\":1892:1906  implementation */\n      0x00\n      0x00\n        /* \"TransparentProxy.sol\":1892:1927  implementation = _newImplementation */\n      0x0100\n      exp\n      dup2\n      sload\n      dup2\n      0xffffffffffffffffffffffffffffffffffffffff\n      mul\n      not\n      and\n      swap1\n      dup4\n      0xffffffffffffffffffffffffffffffffffffffff\n      and\n      mul\n      or\n      swap1\n      sstore\n      pop\n        /* \"TransparentProxy.sol\":1806:1934  function upgradeImplementation(address _newImplementation) public onlyAdmin {... */\n      pop\n      jump\t// out\n        /* \"TransparentProxy.sol\":1332:1352  address public admin */\n    tag_33:\n      0x01\n      0x00\n      swap1\n      sload\n      swap1\n      0x0100\n      exp\n      swap1\n      div\n      0xffffffffffffffffffffffffffffffffffffffff\n      and\n      dup2\n      jump\t// out\n        /* \"#utility.yul\":7:176   */\n    tag_40:\n        /* \"#utility.yul\":91:102   */\n      0x00\n        /* \"#utility.yul\":125:131   */\n      dup3\n        /* \"#utility.yul\":120:123   */\n      dup3\n        /* \"#utility.yul\":113:132   */\n      mstore\n        /* \"#utility.yul\":165:169   */\n      0x20\n        /* \"#utility.yul\":160:163   */\n      dup3\n        /* \"#utility.yul\":156:170   */\n      add\n        /* \"#utility.yul\":141:170   */\n      swap1\n      pop\n        /* \"#utility.yul\":7:176   */\n      swap3\n      swap2\n      pop\n      pop\n      jump\t// out\n        /* \"#utility.yul\":182:354   */\n    tag_41:\n        /* \"#utility.yul\":322:346   */\n      0x496d706c656d656e746174696f6e206e6f742073657400000000000000000000\n        /* \"#utility.yul\":318:319   */\n      0x00\n        /* \"#utility.yul\":310:316   */\n      dup3\n        /* \"#utility.yul\":306:320   */\n      add\n        /* \"#utility.yul\":299:347   */\n      mstore\n        /* \"#utility.yul\":182:354   */\n      pop\n      jump\t// out\n        /* \"#utility.yul\":360:726   */\n    tag_42:\n        /* \"#utility.yul\":502:505   */\n      0x00\n        /* \"#utility.yul\":523:590   */\n      tag_62\n        /* \"#utility.yul\":587:589   */\n      0x16\n        /* \"#utility.yul\":582:585   */\n      dup4\n        /* \"#utility.yul\":523:590   */\n      tag_40\n      jump\t// in\n    tag_62:\n        /* \"#utility.yul\":516:590   */\n      swap2\n      pop\n        /* \"#utility.yul\":599:692   */\n      tag_63\n        /* \"#utility.yul\":688:691   */\n      dup3\n        /* \"#utility.yul\":599:692   */\n      tag_41\n      jump\t// in\n    tag_63:\n        /* \"#utility.yul\":717:719   */\n      0x20\n        /* \"#utility.yul\":712:715   */\n      dup3\n        /* \"#utility.yul\":708:720   */\n      add\n        /* \"#utility.yul\":701:720   */\n      swap1\n      pop\n        /* \"#utility.yul\":360:726   */\n      swap2\n      swap1\n      pop\n      jump\t// out\n        /* \"#utility.yul\":732:1151   */\n    tag_12:\n        /* \"#utility.yul\":898:902   */\n      0x00\n        /* \"#utility.yul\":936:938   */\n      0x20\n        /* \"#utility.yul\":925:934   */\n      dup3\n        /* \"#utility.yul\":921:939   */\n      add\n        /* \"#utility.yul\":913:939   */\n      swap1\n      pop\n        /* \"#utility.yul\":985:994   */\n      dup2\n        /* \"#utility.yul\":979:983   */\n      dup2\n        /* \"#utility.yul\":975:995   */\n      sub\n        /* \"#utility.yul\":971:972   */\n      0x00\n        /* \"#utility.yul\":960:969   */\n      dup4\n        /* \"#utility.yul\":956:973   */\n      add\n        /* \"#utility.yul\":949:996   */\n      mstore\n        /* \"#utility.yul\":1013:1144   */\n      tag_65\n        /* \"#utility.yul\":1139:1143   */\n      dup2\n        /* \"#utility.yul\":1013:1144   */\n      tag_42\n      jump\t// in\n    tag_65:\n        /* \"#utility.yul\":1005:1144   */\n      swap1\n      pop\n        /* \"#utility.yul\":732:1151   */\n      swap2\n      swap1\n      pop\n      jump\t// out\n        /* \"#utility.yul\":1157:1304   */\n    tag_43:\n        /* \"#utility.yul\":1258:1269   */\n      0x00\n        /* \"#utility.yul\":1295:1298   */\n      dup2\n        /* \"#utility.yul\":1280:1298   */\n      swap1\n      pop\n        /* \"#utility.yul\":1157:1304   */\n      swap3\n      swap2\n      pop\n      pop\n      jump\t// out\n        /* \"#utility.yul\":1310:1458   */\n    tag_44:\n        /* \"#utility.yul\":1408:1414   */\n      dup3\n        /* \"#utility.yul\":1403:1406   */\n      dup2\n        /* \"#utility.yul\":1398:1401   */\n      dup4\n        /* \"#utility.yul\":1385:1415   */\n      calldatacopy\n        /* \"#utility.yul\":1449:1450   */\n      0x00\n        /* \"#utility.yul\":1440:1446   */\n      dup4\n        /* \"#utility.yul\":1435:1438   */\n      dup4\n        /* \"#utility.yul\":1431:1447   */\n      add\n        /* \"#utility.yul\":1424:1451   */\n      mstore\n        /* \"#utility.yul\":1310:1458   */\n      pop\n      pop\n      pop\n      jump\t// out\n        /* \"#utility.yul\":1486:1813   */\n    tag_45:\n        /* \"#utility.yul\":1600:1603   */\n      0x00\n        /* \"#utility.yul\":1621:1709   */\n      tag_69\n        /* \"#utility.yul\":1702:1708   */\n      dup4\n        /* \"#utility.yul\":1697:1700   */\n      dup6\n        /* \"#utility.yul\":1621:1709   */\n      tag_43\n      jump\t// in\n    tag_69:\n        /* \"#utility.yul\":1614:1709   */\n      swap4\n      pop\n        /* \"#utility.yul\":1719:1775   */\n      tag_70\n        /* \"#utility.yul\":1768:1774   */\n      dup4\n        /* \"#utility.yul\":1763:1766   */\n      dup6\n        /* \"#utility.yul\":1756:1761   */\n      dup5\n        /* \"#utility.yul\":1719:1775   */\n      tag_44\n      jump\t// in\n    tag_70:\n        /* \"#utility.yul\":1800:1806   */\n      dup3\n        /* \"#utility.yul\":1795:1798   */\n      dup5\n        /* \"#utility.yul\":1791:1807   */\n      add\n        /* \"#utility.yul\":1784:1807   */\n      swap1\n      pop\n        /* \"#utility.yul\":1486:1813   */\n      swap4\n      swap3\n      pop\n      pop\n      pop\n      jump\t// out\n        /* \"#utility.yul\":1819:2110   */\n    tag_14:\n        /* \"#utility.yul\":1959:1962   */\n      0x00\n        /* \"#utility.yul\":1981:2084   */\n      tag_72\n        /* \"#utility.yul\":2080:2083   */\n      dup3\n        /* \"#utility.yul\":2071:2077   */\n      dup5\n        /* \"#utility.yul\":2063:2069   */\n      dup7\n        /* \"#utility.yul\":1981:2084   */\n      tag_45\n      jump\t// in\n    tag_72:\n        /* \"#utility.yul\":1974:2084   */\n      swap2\n      pop\n        /* \"#utility.yul\":2101:2104   */\n      dup2\n        /* \"#utility.yul\":2094:2104   */\n      swap1\n      pop\n        /* \"#utility.yul\":1819:2110   */\n      swap4\n      swap3\n      pop\n      pop\n      pop\n      jump\t// out\n        /* \"#utility.yul\":2116:2285   */\n    tag_46:\n        /* \"#utility.yul\":2256:2277   */\n      0x44656c656761746563616c6c206661696c656400000000000000000000000000\n        /* \"#utility.yul\":2252:2253   */\n      0x00\n        /* \"#utility.yul\":2244:2250   */\n      dup3\n        /* \"#utility.yul\":2240:2254   */\n      add\n        /* \"#utility.yul\":2233:2278   */\n      mstore\n        /* \"#utility.yul\":2116:2285   */\n      pop\n      jump\t// out\n        /* \"#utility.yul\":2291:2657   */\n    tag_47:\n        /* \"#utility.yul\":2433:2436   */\n      0x00\n        /* \"#utility.yul\":2454:2521   */\n      tag_75\n        /* \"#utility.yul\":2518:2520   */\n      0x13\n        /* \"#utility.yul\":2513:2516   */\n      dup4\n        /* \"#utility.yul\":2454:2521   */\n      tag_40\n      jump\t// in\n    tag_75:\n        /* \"#utility.yul\":2447:2521   */\n      swap2\n      pop\n        /* \"#utility.yul\":2530:2623   */\n      tag_76\n        /* \"#utility.yul\":2619:2622   */\n      dup3\n        /* \"#utility.yul\":2530:2623   */\n      tag_46\n      jump\t// in\n    tag_76:\n        /* \"#utility.yul\":2648:2650   */\n      0x20\n        /* \"#utility.yul\":2643:2646   */\n      dup3\n        /* \"#utility.yul\":2639:2651   */\n      add\n        /* \"#utility.yul\":2632:2651   */\n      swap1\n      pop\n        /* \"#utility.yul\":2291:2657   */\n      swap2\n      swap1\n      pop\n      jump\t// out\n        /* \"#utility.yul\":2663:3082   */\n    tag_20:\n        /* \"#utility.yul\":2829:2833   */\n      0x00\n        /* \"#utility.yul\":2867:2869   */\n      0x20\n        /* \"#utility.yul\":2856:2865   */\n      dup3\n        /* \"#utility.yul\":2852:2870   */\n      add\n        /* \"#utility.yul\":2844:2870   */\n      swap1\n      pop\n        /* \"#utility.yul\":2916:2925   */\n      dup2\n        /* \"#utility.yul\":2910:2914   */\n      dup2\n        /* \"#utility.yul\":2906:2926   */\n      sub\n        /* \"#utility.yul\":2902:2903   */\n      0x00\n        /* \"#utility.yul\":2891:2900   */\n      dup4\n        /* \"#utility.yul\":2887:2904   */\n      add\n        /* \"#utility.yul\":2880:2927   */\n      mstore\n        /* \"#utility.yul\":2944:3075   */\n      tag_78\n        /* \"#utility.yul\":3070:3074   */\n      dup2\n        /* \"#utility.yul\":2944:3075   */\n      tag_47\n      jump\t// in\n    tag_78:\n        /* \"#utility.yul\":2936:3075   */\n      swap1\n      pop\n        /* \"#utility.yul\":2663:3082   */\n      swap2\n      swap1\n      pop\n      jump\t// out\n        /* \"#utility.yul\":3088:3214   */\n    tag_48:\n        /* \"#utility.yul\":3125:3132   */\n      0x00\n        /* \"#utility.yul\":3165:3207   */\n      0xffffffffffffffffffffffffffffffffffffffff\n        /* \"#utility.yul\":3158:3163   */\n      dup3\n        /* \"#utility.yul\":3154:3208   */\n      and\n        /* \"#utility.yul\":3143:3208   */\n      swap1\n      pop\n        /* \"#utility.yul\":3088:3214   */\n      swap2\n      swap1\n      pop\n      jump\t// out\n        /* \"#utility.yul\":3220:3316   */\n    tag_49:\n        /* \"#utility.yul\":3257:3264   */\n      0x00\n        /* \"#utility.yul\":3286:3310   */\n      tag_81\n        /* \"#utility.yul\":3304:3309   */\n      dup3\n        /* \"#utility.yul\":3286:3310   */\n      tag_48\n      jump\t// in\n    tag_81:\n        /* \"#utility.yul\":3275:3310   */\n      swap1\n      pop\n        /* \"#utility.yul\":3220:3316   */\n      swap2\n      swap1\n      pop\n      jump\t// out\n        /* \"#utility.yul\":3322:3440   */\n    tag_50:\n        /* \"#utility.yul\":3409:3433   */\n      tag_83\n        /* \"#utility.yul\":3427:3432   */\n      dup2\n        /* \"#utility.yul\":3409:3433   */\n      tag_49\n      jump\t// in\n    tag_83:\n        /* \"#utility.yul\":3404:3407   */\n      dup3\n        /* \"#utility.yul\":3397:3434   */\n      mstore\n        /* \"#utility.yul\":3322:3440   */\n      pop\n      pop\n      jump\t// out\n        /* \"#utility.yul\":3446:3668   */\n    tag_25:\n        /* \"#utility.yul\":3539:3543   */\n      0x00\n        /* \"#utility.yul\":3577:3579   */\n      0x20\n        /* \"#utility.yul\":3566:3575   */\n      dup3\n        /* \"#utility.yul\":3562:3580   */\n      add\n        /* \"#utility.yul\":3554:3580   */\n      swap1\n      pop\n        /* \"#utility.yul\":3590:3661   */\n      tag_85\n        /* \"#utility.yul\":3658:3659   */\n      0x00\n        /* \"#utility.yul\":3647:3656   */\n      dup4\n        /* \"#utility.yul\":3643:3660   */\n      add\n        /* \"#utility.yul\":3634:3640   */\n      dup5\n        /* \"#utility.yul\":3590:3661   */\n      tag_50\n      jump\t// in\n    tag_85:\n        /* \"#utility.yul\":3446:3668   */\n      swap3\n      swap2\n      pop\n      pop\n      jump\t// out\n        /* \"#utility.yul\":3755:3872   */\n    tag_52:\n        /* \"#utility.yul\":3864:3865   */\n      0x00\n        /* \"#utility.yul\":3861:3862   */\n      0x00\n        /* \"#utility.yul\":3854:3866   */\n      revert\n        /* \"#utility.yul\":4001:4123   */\n    tag_54:\n        /* \"#utility.yul\":4074:4098   */\n      tag_90\n        /* \"#utility.yul\":4092:4097   */\n      dup2\n        /* \"#utility.yul\":4074:4098   */\n      tag_49\n      jump\t// in\n    tag_90:\n        /* \"#utility.yul\":4067:4072   */\n      dup2\n        /* \"#utility.yul\":4064:4099   */\n      eq\n        /* \"#utility.yul\":4054:4117   */\n      tag_91\n      jumpi\n        /* \"#utility.yul\":4113:4114   */\n      0x00\n        /* \"#utility.yul\":4110:4111   */\n      0x00\n        /* \"#utility.yul\":4103:4115   */\n      revert\n        /* \"#utility.yul\":4054:4117   */\n    tag_91:\n        /* \"#utility.yul\":4001:4123   */\n      pop\n      jump\t// out\n        /* \"#utility.yul\":4129:4268   */\n    tag_55:\n        /* \"#utility.yul\":4175:4180   */\n      0x00\n        /* \"#utility.yul\":4213:4219   */\n      dup2\n        /* \"#utility.yul\":4200:4220   */\n      calldataload\n        /* \"#utility.yul\":4191:4220   */\n      swap1\n      pop\n        /* \"#utility.yul\":4229:4262   */\n      tag_93\n        /* \"#utility.yul\":4256:4261   */\n      dup2\n        /* \"#utility.yul\":4229:4262   */\n      tag_54\n      jump\t// in\n    tag_93:\n        /* \"#utility.yul\":4129:4268   */\n      swap3\n      swap2\n      pop\n      pop\n      jump\t// out\n        /* \"#utility.yul\":4274:4603   */\n    tag_29:\n        /* \"#utility.yul\":4333:4339   */\n      0x00\n        /* \"#utility.yul\":4382:4384   */\n      0x20\n        /* \"#utility.yul\":4370:4379   */\n      dup3\n        /* \"#utility.yul\":4361:4368   */\n      dup5\n        /* \"#utility.yul\":4357:4380   */\n      sub\n        /* \"#utility.yul\":4353:4385   */\n      slt\n        /* \"#utility.yul\":4350:4469   */\n      iszero\n      tag_95\n      jumpi\n        /* \"#utility.yul\":4388:4467   */\n      tag_96\n      tag_52\n      jump\t// in\n    tag_96:\n        /* \"#utility.yul\":4350:4469   */\n    tag_95:\n        /* \"#utility.yul\":4508:4509   */\n      0x00\n        /* \"#utility.yul\":4533:4586   */\n      tag_97\n        /* \"#utility.yul\":4578:4585   */\n      dup5\n        /* \"#utility.yul\":4569:4575   */\n      dup3\n        /* \"#utility.yul\":4558:4567   */\n      dup6\n        /* \"#utility.yul\":4554:4576   */\n      add\n        /* \"#utility.yul\":4533:4586   */\n      tag_55\n      jump\t// in\n    tag_97:\n        /* \"#utility.yul\":4523:4586   */\n      swap2\n      pop\n        /* \"#utility.yul\":4479:4596   */\n      pop\n        /* \"#utility.yul\":4274:4603   */\n      swap3\n      swap2\n      pop\n      pop\n      jump\t// out\n        /* \"#utility.yul\":4609:4829   */\n    tag_56:\n        /* \"#utility.yul\":4749:4783   */\n      0x4f6e6c792061646d696e2063616e2063616c6c20746869732066756e6374696f\n        /* \"#utility.yul\":4745:4746   */\n      0x00\n        /* \"#utility.yul\":4737:4743   */\n      dup3\n        /* \"#utility.yul\":4733:4747   */\n      add\n        /* \"#utility.yul\":4726:4784   */\n      mstore\n        /* \"#utility.yul\":4818:4821   */\n      0x6e00000000000000000000000000000000000000000000000000000000000000\n        /* \"#utility.yul\":4813:4815   */\n      0x20\n        /* \"#utility.yul\":4805:4811   */\n      dup3\n        /* \"#utility.yul\":4801:4816   */\n      add\n        /* \"#utility.yul\":4794:4822   */\n      mstore\n        /* \"#utility.yul\":4609:4829   */\n      pop\n      jump\t// out\n        /* \"#utility.yul\":4835:5201   */\n    tag_57:\n        /* \"#utility.yul\":4977:4980   */\n      0x00\n        /* \"#utility.yul\":4998:5065   */\n      tag_100\n        /* \"#utility.yul\":5062:5064   */\n      0x21\n        /* \"#utility.yul\":5057:5060   */\n      dup4\n        /* \"#utility.yul\":4998:5065   */\n      tag_40\n      jump\t// in\n    tag_100:\n        /* \"#utility.yul\":4991:5065   */\n      swap2\n      pop\n        /* \"#utility.yul\":5074:5167   */\n      tag_101\n        /* \"#utility.yul\":5163:5166   */\n      dup3\n        /* \"#utility.yul\":5074:5167   */\n      tag_56\n      jump\t// in\n    tag_101:\n        /* \"#utility.yul\":5192:5194   */\n      0x40\n        /* \"#utility.yul\":5187:5190   */\n      dup3\n        /* \"#utility.yul\":5183:5195   */\n      add\n        /* \"#utility.yul\":5176:5195   */\n      swap1\n      pop\n        /* \"#utility.yul\":4835:5201   */\n      swap2\n      swap1\n      pop\n      jump\t// out\n        /* \"#utility.yul\":5207:5626   */\n    tag_38:\n        /* \"#utility.yul\":5373:5377   */\n      0x00\n        /* \"#utility.yul\":5411:5413   */\n      0x20\n        /* \"#utility.yul\":5400:5409   */\n      dup3\n        /* \"#utility.yul\":5396:5414   */\n      add\n        /* \"#utility.yul\":5388:5414   */\n      swap1\n      pop\n        /* \"#utility.yul\":5460:5469   */\n      dup2\n        /* \"#utility.yul\":5454:5458   */\n      dup2\n        /* \"#utility.yul\":5450:5470   */\n      sub\n        /* \"#utility.yul\":5446:5447   */\n      0x00\n        /* \"#utility.yul\":5435:5444   */\n      dup4\n        /* \"#utility.yul\":5431:5448   */\n      add\n        /* \"#utility.yul\":5424:5471   */\n      mstore\n        /* \"#utility.yul\":5488:5619   */\n      tag_103\n        /* \"#utility.yul\":5614:5618   */\n      dup2\n        /* \"#utility.yul\":5488:5619   */\n      tag_57\n      jump\t// in\n    tag_103:\n        /* \"#utility.yul\":5480:5619   */\n      swap1\n      pop\n        /* \"#utility.yul\":5207:5626   */\n      swap2\n      swap1\n      pop\n      jump\t// out\n\n    auxdata: 0xa2646970667358221220f1af81fc1a0232d98562e20cc6c58027152c00df9614133e09c9fc0ad32dea6f64736f6c634300081e0033\n}\n",
				"bytecode": {
					"linkReferences": {},
					"object": "608060405234801561000f575f5ffd5b5060405161070638038061070683398181016040528101906100319190610114565b805f5f6101000a81548173ffffffffffffffffffffffffffffffffffffffff021916908373ffffffffffffffffffffffffffffffffffffffff1602179055503360015f6101000a81548173ffffffffffffffffffffffffffffffffffffffff021916908373ffffffffffffffffffffffffffffffffffffffff1602179055505061013f565b5f5ffd5b5f73ffffffffffffffffffffffffffffffffffffffff82169050919050565b5f6100e3826100ba565b9050919050565b6100f3816100d9565b81146100fd575f5ffd5b50565b5f8151905061010e816100ea565b92915050565b5f60208284031215610129576101286100b6565b5b5f61013684828501610100565b91505092915050565b6105ba8061014c5f395ff3fe608060405260043610610037575f3560e01c80635c60da1b1461017b57806383f94db7146101a5578063f851a440146101cd5761003e565b3661003e57005b5f5f5f9054906101000a900473ffffffffffffffffffffffffffffffffffffffff1690505f73ffffffffffffffffffffffffffffffffffffffff168173ffffffffffffffffffffffffffffffffffffffff16036100d0576040517f08c379a00000000000000000000000000000000000000000000000000000000081526004016100c79061036b565b60405180910390fd5b5f8173ffffffffffffffffffffffffffffffffffffffff165f366040516100f89291906103c5565b5f60405180830381855af49150503d805f8114610130576040519150601f19603f3d011682016040523d82523d5f602084013e610135565b606091505b5050905080610179576040517f08c379a000000000000000000000000000000000000000000000000000000000815260040161017090610427565b60405180910390fd5b005b348015610186575f5ffd5b5061018f6101f7565b60405161019c9190610484565b60405180910390f35b3480156101b0575f5ffd5b506101cb60048036038101906101c691906104cb565b61021b565b005b3480156101d8575f5ffd5b506101e16102ec565b6040516101ee9190610484565b60405180910390f35b5f5f9054906101000a900473ffffffffffffffffffffffffffffffffffffffff1681565b60015f9054906101000a900473ffffffffffffffffffffffffffffffffffffffff1673ffffffffffffffffffffffffffffffffffffffff163373ffffffffffffffffffffffffffffffffffffffff16146102aa576040517f08c379a00000000000000000000000000000000000000000000000000000000081526004016102a190610566565b60405180910390fd5b805f5f6101000a81548173ffffffffffffffffffffffffffffffffffffffff021916908373ffffffffffffffffffffffffffffffffffffffff16021790555050565b60015f9054906101000a900473ffffffffffffffffffffffffffffffffffffffff1681565b5f82825260208201905092915050565b7f496d706c656d656e746174696f6e206e6f7420736574000000000000000000005f82015250565b5f610355601683610311565b915061036082610321565b602082019050919050565b5f6020820190508181035f83015261038281610349565b9050919050565b5f81905092915050565b828183375f83830152505050565b5f6103ac8385610389565b93506103b9838584610393565b82840190509392505050565b5f6103d18284866103a1565b91508190509392505050565b7f44656c656761746563616c6c206661696c6564000000000000000000000000005f82015250565b5f610411601383610311565b915061041c826103dd565b602082019050919050565b5f6020820190508181035f83015261043e81610405565b9050919050565b5f73ffffffffffffffffffffffffffffffffffffffff82169050919050565b5f61046e82610445565b9050919050565b61047e81610464565b82525050565b5f6020820190506104975f830184610475565b92915050565b5f5ffd5b6104aa81610464565b81146104b4575f5ffd5b50565b5f813590506104c5816104a1565b92915050565b5f602082840312156104e0576104df61049d565b5b5f6104ed848285016104b7565b91505092915050565b7f4f6e6c792061646d696e2063616e2063616c6c20746869732066756e6374696f5f8201527f6e00000000000000000000000000000000000000000000000000000000000000602082015250565b5f610550602183610311565b915061055b826104f6565b604082019050919050565b5f6020820190508181035f83015261057d81610544565b905091905056fea2646970667358221220f1af81fc1a0232d98562e20cc6c58027152c00df9614133e09c9fc0ad32dea6f64736f6c634300081e0033",
					"opcodes": "PUSH1 0x80 PUSH1 0x40 MSTORE CALLVALUE DUP1 ISZERO PUSH2 0xF JUMPI PUSH0 PUSH0 REVERT JUMPDEST POP PUSH1 0x40 MLOAD PUSH2 0x706 CODESIZE SUB DUP1 PUSH2 0x706 DUP4 CODECOPY DUP2 DUP2 ADD PUSH1 0x40 MSTORE DUP2 ADD SWAP1 PUSH2 0x31 SWAP2 SWAP1 PUSH2 0x114 JUMP JUMPDEST DUP1 PUSH0 PUSH0 PUSH2 0x100 EXP DUP2 SLOAD DUP2 PUSH20 0xFFFFFFFFFFFFFFFFFFFFFFFFFFFFFFFFFFFFFFFF MUL NOT AND SWAP1 DUP4 PUSH20 0xFFFFFFFFFFFFFFFFFFFFFFFFFFFFFFFFFFFFFFFF AND MUL OR SWAP1 SSTORE POP CALLER PUSH1 0x1 PUSH0 PUSH2 0x100 EXP DUP2 SLOAD DUP2 PUSH20 0xFFFFFFFFFFFFFFFFFFFFFFFFFFFFFFFFFFFFFFFF MUL NOT AND SWAP1 DUP4 PUSH20 0xFFFFFFFFFFFFFFFFFFFFFFFFFFFFFFFFFFFFFFFF AND MUL OR SWAP1 SSTORE POP POP PUSH2 0x13F JUMP JUMPDEST PUSH0 PUSH0 REVERT JUMPDEST PUSH0 PUSH20 0xFFFFFFFFFFFFFFFFFFFFFFFFFFFFFFFFFFFFFFFF DUP3 AND SWAP1 POP SWAP2 SWAP1 POP JUMP JUMPDEST PUSH0 PUSH2 0xE3 DUP3 PUSH2 0xBA JUMP JUMPDEST SWAP1 POP SWAP2 SWAP1 POP JUMP JUMPDEST PUSH2 0xF3 DUP2 PUSH2 0xD9 JUMP JUMPDEST DUP2 EQ PUSH2 0xFD JUMPI PUSH0 PUSH0 REVERT JUMPDEST POP JUMP JUMPDEST PUSH0 DUP2 MLOAD SWAP1 POP PUSH2 0x10E DUP2 PUSH2 0xEA JUMP JUMPDEST SWAP3 SWAP2 POP POP JUMP JUMPDEST PUSH0 PUSH1 0x20 DUP3 DUP5 SUB SLT ISZERO PUSH2 0x129 JUMPI PUSH2 0x128 PUSH2 0xB6 JUMP JUMPDEST JUMPDEST PUSH0 PUSH2 0x136 DUP5 DUP3 DUP6 ADD PUSH2 0x100 JUMP JUMPDEST SWAP2 POP POP SWAP3 SWAP2 POP POP JUMP JUMPDEST PUSH2 0x5BA DUP1 PUSH2 0x14C PUSH0 CODECOPY PUSH0 RETURN INVALID PUSH1 0x80 PUSH1 0x40 MSTORE PUSH1 0x4 CALLDATASIZE LT PUSH2 0x37 JUMPI PUSH0 CALLDATALOAD PUSH1 0xE0 SHR DUP1 PUSH4 0x5C60DA1B EQ PUSH2 0x17B JUMPI DUP1 PUSH4 0x83F94DB7 EQ PUSH2 0x1A5 JUMPI DUP1 PUSH4 0xF851A440 EQ PUSH2 0x1CD JUMPI PUSH2 0x3E JUMP JUMPDEST CALLDATASIZE PUSH2 0x3E JUMPI STOP JUMPDEST PUSH0 PUSH0 PUSH0 SWAP1 SLOAD SWAP1 PUSH2 0x100 EXP SWAP1 DIV PUSH20 0xFFFFFFFFFFFFFFFFFFFFFFFFFFFFFFFFFFFFFFFF AND SWAP1 POP PUSH0 PUSH20 0xFFFFFFFFFFFFFFFFFFFFFFFFFFFFFFFFFFFFFFFF AND DUP2 PUSH20 0xFFFFFFFFFFFFFFFFFFFFFFFFFFFFFFFFFFFFFFFF AND SUB PUSH2 0xD0 JUMPI PUSH1 0x40 MLOAD PUSH32 0x8C379A000000000000000000000000000000000000000000000000000000000 DUP2 MSTORE PUSH1 0x4 ADD PUSH2 0xC7 SWAP1 PUSH2 0x36B JUMP JUMPDEST PUSH1 0x40 MLOAD DUP1 SWAP2 SUB SWAP1 REVERT JUMPDEST PUSH0 DUP2 PUSH20 0xFFFFFFFFFFFFFFFFFFFFFFFFFFFFFFFFFFFFFFFF AND PUSH0 CALLDATASIZE PUSH1 0x40 MLOAD PUSH2 0xF8 SWAP3 SWAP2 SWAP1 PUSH2 0x3C5 JUMP JUMPDEST PUSH0 PUSH1 0x40 MLOAD DUP1 DUP4 SUB DUP2 DUP6 GAS DELEGATECALL SWAP2 POP POP RETURNDATASIZE DUP1 PUSH0 DUP2 EQ PUSH2 0x130 JUMPI PUSH1 0x40 MLOAD SWAP2 POP PUSH1 0x1F NOT PUSH1 0x3F RETURNDATASIZE ADD AND DUP3 ADD PUSH1 0x40 MSTORE RETURNDATASIZE DUP3 MSTORE RETURNDATASIZE PUSH0 PUSH1 0x20 DUP5 ADD RETURNDATACOPY PUSH2 0x135 JUMP JUMPDEST PUSH1 0x60 SWAP2 POP JUMPDEST POP POP SWAP1 POP DUP1 PUSH2 0x179 JUMPI PUSH1 0x40 MLOAD PUSH32 0x8C379A000000000000000000000000000000000000000000000000000000000 DUP2 MSTORE PUSH1 0x4 ADD PUSH2 0x170 SWAP1 PUSH2 0x427 JUMP JUMPDEST PUSH1 0x40 MLOAD DUP1 SWAP2 SUB SWAP1 REVERT JUMPDEST STOP JUMPDEST CALLVALUE DUP1 ISZERO PUSH2 0x186 JUMPI PUSH0 PUSH0 REVERT JUMPDEST POP PUSH2 0x18F PUSH2 0x1F7 JUMP JUMPDEST PUSH1 0x40 MLOAD PUSH2 0x19C SWAP2 SWAP1 PUSH2 0x484 JUMP JUMPDEST PUSH1 0x40 MLOAD DUP1 SWAP2 SUB SWAP1 RETURN JUMPDEST CALLVALUE DUP1 ISZERO PUSH2 0x1B0 JUMPI PUSH0 PUSH0 REVERT JUMPDEST POP PUSH2 0x1CB PUSH1 0x4 DUP1 CALLDATASIZE SUB DUP2 ADD SWAP1 PUSH2 0x1C6 SWAP2 SWAP1 PUSH2 0x4CB JUMP JUMPDEST PUSH2 0x21B JUMP JUMPDEST STOP JUMPDEST CALLVALUE DUP1 ISZERO PUSH2 0x1D8 JUMPI PUSH0 PUSH0 REVERT JUMPDEST POP PUSH2 0x1E1 PUSH2 0x2EC JUMP JUMPDEST PUSH1 0x40 MLOAD PUSH2 0x1EE SWAP2 SWAP1 PUSH2 0x484 JUMP JUMPDEST PUSH1 0x40 MLOAD DUP1 SWAP2 SUB SWAP1 RETURN JUMPDEST PUSH0 PUSH0 SWAP1 SLOAD SWAP1 PUSH2 0x100 EXP SWAP1 DIV PUSH20 0xFFFFFFFFFFFFFFFFFFFFFFFFFFFFFFFFFFFFFFFF AND DUP2 JUMP JUMPDEST PUSH1 0x1 PUSH0 SWAP1 SLOAD SWAP1 PUSH2 0x100 EXP SWAP1 DIV PUSH20 0xFFFFFFFFFFFFFFFFFFFFFFFFFFFFFFFFFFFFFFFF AND PUSH20 0xFFFFFFFFFFFFFFFFFFFFFFFFFFFFFFFFFFFFFFFF AND CALLER PUSH20 0xFFFFFFFFFFFFFFFFFFFFFFFFFFFFFFFFFFFFFFFF AND EQ PUSH2 0x2AA JUMPI PUSH1 0x40 MLOAD PUSH32 0x8C379A000000000000000000000000000000000000000000000000000000000 DUP2 MSTORE PUSH1 0x4 ADD PUSH2 0x2A1 SWAP1 PUSH2 0x566 JUMP JUMPDEST PUSH1 0x40 MLOAD DUP1 SWAP2 SUB SWAP1 REVERT JUMPDEST DUP1 PUSH0 PUSH0 PUSH2 0x100 EXP DUP2 SLOAD DUP2 PUSH20 0xFFFFFFFFFFFFFFFFFFFFFFFFFFFFFFFFFFFFFFFF MUL NOT AND SWAP1 DUP4 PUSH20 0xFFFFFFFFFFFFFFFFFFFFFFFFFFFFFFFFFFFFFFFF AND MUL OR SWAP1 SSTORE POP POP JUMP JUMPDEST PUSH1 0x1 PUSH0 SWAP1 SLOAD SWAP1 PUSH2 0x100 EXP SWAP1 DIV PUSH20 0xFFFFFFFFFFFFFFFFFFFFFFFFFFFFFFFFFFFFFFFF AND DUP2 JUMP JUMPDEST PUSH0 DUP3 DUP3 MSTORE PUSH1 0x20 DUP3 ADD SWAP1 POP SWAP3 SWAP2 POP POP JUMP JUMPDEST PUSH32 0x496D706C656D656E746174696F6E206E6F742073657400000000000000000000 PUSH0 DUP3 ADD MSTORE POP JUMP JUMPDEST PUSH0 PUSH2 0x355 PUSH1 0x16 DUP4 PUSH2 0x311 JUMP JUMPDEST SWAP2 POP PUSH2 0x360 DUP3 PUSH2 0x321 JUMP JUMPDEST PUSH1 0x20 DUP3 ADD SWAP1 POP SWAP2 SWAP1 POP JUMP JUMPDEST PUSH0 PUSH1 0x20 DUP3 ADD SWAP1 POP DUP2 DUP2 SUB PUSH0 DUP4 ADD MSTORE PUSH2 0x382 DUP2 PUSH2 0x349 JUMP JUMPDEST SWAP1 POP SWAP2 SWAP1 POP JUMP JUMPDEST PUSH0 DUP2 SWAP1 POP SWAP3 SWAP2 POP POP JUMP JUMPDEST DUP3 DUP2 DUP4 CALLDATACOPY PUSH0 DUP4 DUP4 ADD MSTORE POP POP POP JUMP JUMPDEST PUSH0 PUSH2 0x3AC DUP4 DUP6 PUSH2 0x389 JUMP JUMPDEST SWAP4 POP PUSH2 0x3B9 DUP4 DUP6 DUP5 PUSH2 0x393 JUMP JUMPDEST DUP3 DUP5 ADD SWAP1 POP SWAP4 SWAP3 POP POP POP JUMP JUMPDEST PUSH0 PUSH2 0x3D1 DUP3 DUP5 DUP7 PUSH2 0x3A1 JUMP JUMPDEST SWAP2 POP DUP2 SWAP1 POP SWAP4 SWAP3 POP POP POP JUMP JUMPDEST PUSH32 0x44656C656761746563616C6C206661696C656400000000000000000000000000 PUSH0 DUP3 ADD MSTORE POP JUMP JUMPDEST PUSH0 PUSH2 0x411 PUSH1 0x13 DUP4 PUSH2 0x311 JUMP JUMPDEST SWAP2 POP PUSH2 0x41C DUP3 PUSH2 0x3DD JUMP JUMPDEST PUSH1 0x20 DUP3 ADD SWAP1 POP SWAP2 SWAP1 POP JUMP JUMPDEST PUSH0 PUSH1 0x20 DUP3 ADD SWAP1 POP DUP2 DUP2 SUB PUSH0 DUP4 ADD MSTORE PUSH2 0x43E DUP2 PUSH2 0x405 JUMP JUMPDEST SWAP1 POP SWAP2 SWAP1 POP JUMP JUMPDEST PUSH0 PUSH20 0xFFFFFFFFFFFFFFFFFFFFFFFFFFFFFFFFFFFFFFFF DUP3 AND SWAP1 POP SWAP2 SWAP1 POP JUMP JUMPDEST PUSH0 PUSH2 0x46E DUP3 PUSH2 0x445 JUMP JUMPDEST SWAP1 POP SWAP2 SWAP1 POP JUMP JUMPDEST PUSH2 0x47E DUP2 PUSH2 0x464 JUMP JUMPDEST DUP3 MSTORE POP POP JUMP JUMPDEST PUSH0 PUSH1 0x20 DUP3 ADD SWAP1 POP PUSH2 0x497 PUSH0 DUP4 ADD DUP5 PUSH2 0x475 JUMP JUMPDEST SWAP3 SWAP2 POP POP JUMP JUMPDEST PUSH0 PUSH0 REVERT JUMPDEST PUSH2 0x4AA DUP2 PUSH2 0x464 JUMP JUMPDEST DUP2 EQ PUSH2 0x4B4 JUMPI PUSH0 PUSH0 REVERT JUMPDEST POP JUMP JUMPDEST PUSH0 DUP2 CALLDATALOAD SWAP1 POP PUSH2 0x4C5 DUP2 PUSH2 0x4A1 JUMP JUMPDEST SWAP3 SWAP2 POP POP JUMP JUMPDEST PUSH0 PUSH1 0x20 DUP3 DUP5 SUB SLT ISZERO PUSH2 0x4E0 JUMPI PUSH2 0x4DF PUSH2 0x49D JUMP JUMPDEST JUMPDEST PUSH0 PUSH2 0x4ED DUP5 DUP3 DUP6 ADD PUSH2 0x4B7 JUMP JUMPDEST SWAP2 POP POP SWAP3 SWAP2 POP POP JUMP JUMPDEST PUSH32 0x4F6E6C792061646D696E2063616E2063616C6C20746869732066756E6374696F PUSH0 DUP3 ADD MSTORE PUSH32 0x6E00000000000000000000000000000000000000000000000000000000000000 PUSH1 0x20 DUP3 ADD MSTORE POP JUMP JUMPDEST PUSH0 PUSH2 0x550 PUSH1 0x21 DUP4 PUSH2 0x311 JUMP JUMPDEST SWAP2 POP PUSH2 0x55B DUP3 PUSH2 0x4F6 JUMP JUMPDEST PUSH1 0x40 DUP3 ADD SWAP1 POP SWAP2 SWAP1 POP JUMP JUMPDEST PUSH0 PUSH1 0x20 DUP3 ADD SWAP1 POP DUP2 DUP2 SUB PUSH0 DUP4 ADD MSTORE PUSH2 0x57D DUP2 PUSH2 0x544 JUMP JUMPDEST SWAP1 POP SWAP2 SWAP1 POP JUMP INVALID LOG2 PUSH5 0x6970667358 0x22 SLT KECCAK256 CALL 0xAF DUP2 0xFC BYTE MUL ORIGIN 0xD9 DUP6 PUSH3 0xE20CC6 0xC5 DUP1 0x27 ISZERO 0x2C STOP 0xDF SWAP7 EQ SGT RETURNDATACOPY MULMOD 0xC9 0xFC EXP 0xD3 0x2D 0xEA PUSH16 0x64736F6C634300081E00330000000000 "
				},
				"gasEstimates": {
					"creation": {
						"codeDepositCost": "293200",
						"executionCost": "infinite",
						"totalCost": "infinite"
					},
					"external": {
						"": "infinite",
						"admin()": "2530",
						"implementation()": "2485",
						"upgradeImplementation(address)": "26883"
					}
				},
				"methodIdentifiers": {
					"admin()": "f851a440",
					"implementation()": "5c60da1b",
					"upgradeImplementation(address)": "83f94db7"
				}
			},
			"storageLayout": {
				"storage": [
					{
						"astId": 55,
						"contract": "TransparentProxy.sol:TransparentProxy",
						"label": "implementation",
						"offset": 0,
						"slot": "0",
						"type": "t_address"
					},
					{
						"astId": 57,
						"contract": "TransparentProxy.sol:TransparentProxy",
						"label": "admin",
						"offset": 0,
						"slot": "1",
						"type": "t_address"
					}
				],
				"types": {
					"t_address": {
						"encoding": "inplace",
						"label": "address",
						"numberOfBytes": "20"
					}
				}
			},
			"userdoc": {
				"kind": "user",
				"methods": {},
				"version": 1
			}
		}
	}
}